:100000000C942A000C94770A0C94AA0A0C94DD0A2A
:100010000C9447000C9447000C9447000C94470044
:100020000C9447000C9447000C94DC060C941E07BB
:100030000C9447000C9447000C9447000C94470024
:100040000C94860F0C9447000C9447000C944700C6
:100050000C94470011241FBECFE5D8E0DEBFCDBF12
:1000600011E0A0E6B0E0E4E2F8E502C005900D92F0
:10007000AC30B107D9F711E0ACE0B1E001C01D929E
:10008000A532B107E1F70E949C1F0C94102C0C9430
:100090000000EF92FF920F931F937B018C0120E0F1
:1000A00030E040E05FE40E94490388238CF0C801FF
:1000B000B70120E030E040E05FE40E94C1010E940F
:1000C000A9039B01AC01205030404040504806C07D
:1000D000C801B7010E94A9039B01AC01B901CA0183
:1000E0001F910F91FF90EF900895A0E0B0E0EBE733
:1000F000F0E00C94D92BDC012B01FA019C91923099
:1001000008F439C1EB018881823008F433C194309E
:1001100069F4843009F02FC111969C91119789815F
:10012000981709F428C1A9EEB0E025C1843009F47C
:1001300021C18230A9F4923009F01DC19A01AD01AC
:1001400088E0EA010990AE01E90109929E0181501F
:10015000C1F7E201898111969C918923818308C1AD
:10016000923009F407C112962D903C901397EB0141
:100170008A819B811496AD90BD90CD90DC901797AD
:10018000EC80FD800E811F819101281B390BB90184
:1001900037FF04C066277727621B730B6032710537
:1001A0000CF061C0121613066CF537014801062EDB
:1001B00004C096948794779467940A94D2F721E0C8
:1001C00030E040E050E004C0220F331F441F551FB1
:1001D0006A95D2F721503040404050402E213F21B7
:1001E00040235123211531054105510521F021E01E
:1001F00030E040E050E079018A01E628F72808293C
:1002000019293CC0232BD1F1260E371E350146019A
:10021000062E04C096948794779467940A94D2F734
:1002200021E030E040E050E004C0220F331F441FC3
:10023000551F6A95D2F721503040404050402A2146
:100240003B214C215D21211531054105510521F04E
:1002500021E030E040E050E059016A01A628B728CB
:10026000C828D9280BC0821593052CF01C01AA249C
:10027000BB24650103C0EE24FF24870111969C91E5
:10028000D20111968C91981709F445C0992339F041
:10029000A80197012A193B094C095D0906C0A6016E
:1002A00095012E193F09400B510B57FD08C01182D3
:1002B0003382228224833583468357831DC081E0A5
:1002C00081833382228288279927DC01821B930B4A
:1002D000A40BB50B84839583A683B7830DC0220F2F
:1002E000331F441F551F24833583468357838281E0
:1002F000938101979383828324813581468157813D
:10030000DA01C9010197A109B1098F5F9F4FAF4F72
:10031000BF4328F30BC0918333822282EA0CFB1C7B
:100320000C1D1D1DE482F5820683178383E0808304
:10033000248135814681578157FF1AC0C901AA27F8
:1003400097FDA095BA2F81709070A070B0705695EF
:10035000479537952795822B932BA42BB52B848318
:100360009583A683B7838281938101969383828349
:10037000DF0101C0D201CD01CDB7DEB7E2E10C94BF
:10038000F52BA0E2B0E0E7ECF1E00C94E52B6983FB
:100390007A838B839C832D833E834F835887E9E048
:1003A000EE2EF12CEC0EFD1ECE010196B7010E943F
:1003B000D2048E010F5E1F4FCE010596B8010E9438
:1003C000D2048A8991E089278A8BC701B801AE01DE
:1003D000475E5F4F0E9475000E94FD03A096E6E015
:1003E0000C94012CA0E2B0E0E8EFF1E00C94E52BD6
:1003F00069837A838B839C832D833E834F835887C5
:10040000F9E0EF2EF12CEC0EFD1ECE010196B701A6
:100410000E94D2048E010F5E1F4FCE010596B801D7
:100420000E94D204C701B801AE01475E5F4F0E942F
:1004300075000E94FD03A096E6E00C94012CA0E25A
:10044000B0E0E5E2F2E00C94D92B69837A838B83E8
:100450009C832D833E834F835887CE010196BE0136
:10046000675F7F4F0E94D204CE010596BE016F5E8A
:100470007F4F0E94D2049985923088F0898982301A
:10048000C8F0943019F4823051F404C0843029F457
:10049000923081F489EE90E0C6C0923049F420E0B9
:1004A0009A858A89981321E02A87CE010996BBC0D4
:1004B000823049F420E09A858A89981321E02A8BBA
:1004C000CE014196B0C02D843E844F8458886D88FB
:1004D0007E888F88988CEE24FF248701AA24BB2471
:1004E000650140E050E060E070E0E0E0F0E0C10174
:1004F00081709070892BE9F0E60CF71C081D191D1E
:100500009A01AB012A0D3B1D4C1D5D1D80E090E062
:10051000A0E0B0E0E614F7040805190520F481E036
:1005200090E0A0E0B0E0BA01A901480F591F6A1F8E
:100530007B1FAA0CBB1CCC1CDD1C97FE08C081E0F5
:1005400090E0A0E0B0E0A82AB92ACA2ADB2A3196B6
:10055000E032F10549F0660C771C881C991C569412
:10056000479437942794C3CFFA85EA892B893C892D
:100570008B859C85280F391F2E5F3F4F17C0CA01FE
:1005800081709070892B61F016950795F794E79428
:1005900080E090E0A0E0B0E8E82AF92A0A2B1B2BC3
:1005A00076956795579547952F5F3F4F77FDE7CF36
:1005B0000CC0440F551F661F771F17FD4160EE0CDE
:1005C000FF1C001F111F21503040403090E05907A0
:1005D00090E0690790E4790760F32B8F3C8FDB0193
:1005E000CA018F779070A070B07080349105A1051A
:1005F000B10561F447FD0AC0E114F10401051105DC
:1006000029F0405C5F4F6F4F7F4F40781A8EFE1786
:1006100011F081E08A8F4D8F5E8F6F8F78A383E01A
:10062000898FCE0149960E94FD03A096E2E10C94C9
:10063000F52BA8E1B0E0EFE1F3E00C94E52B698342
:100640007A838B839C832D833E834F83588789E0F5
:10065000E82EF12CEC0EFD1ECE010196B7010E9492
:10066000D2048E010F5E1F4FCE010596B8010E9485
:10067000D2048985823040F08989823028F0C70110
:10068000B8010E944A0501C08FEF6896E6E00C941D
:10069000012CA8E1B0E0EFE4F3E00C94E52B6983D2
:1006A0007A838B839C832D833E834F83588789E095
:1006B000E82EF12CEC0EFD1ECE010196B7010E9432
:1006C000D2048E010F5E1F4FCE010596B8010E9425
:1006D000D2048985823040F08989823028F0C701B0
:1006E000B8010E944A0501C08FEF6896E6E00C94BD
:1006F000012CA8E1B0E0EFE7F3E00C94E52B69836F
:100700007A838B839C832D833E834F83588789E034
:10071000E82EF12CEC0EFD1ECE010196B7010E94D1
:10072000D2048E010F5E1F4FCE010596B8010E94C4
:10073000D2048985823040F08989823028F0C7014F
:10074000B8010E944A0501C081E06896E6E00C9479
:10075000012CACE0B0E0EFEAF3E00C94E92B698304
:100760007A838B839C83CE010196BE016B5F7F4FA2
:100770000E94D2048D81823061F1823050F1843048
:1007800021F48E81882351F12EC02F81388537FDC9
:1007900020C06E812F3131051CF06623F9F023C093
:1007A0008EE190E0821B930B29853A854B855C8511
:1007B00004C056954795379527958A95D2F76623B5
:1007C000B1F050954095309521953F4F4F4F5F4F79
:1007D0000EC020E030E040E050E009C02FEF3FEFD6
:1007E0004FEF5FE704C020E030E040E050E8B9019F
:1007F000CA012C96E2E00C94052CDF92EF92FF9256
:100800000F931F93FC01E480F58006811781D1804E
:100810008081823048F480E090E0A0E1B0E0E82AF6
:10082000F92A0A2B1B2BA5C0843009F49FC0823003
:1008300021F4EE24FF24870105C0E114F104010531
:10084000110519F4E0E0F0E096C0628173819FEF3A
:10085000623879070CF05BC022E83FEF261B370BAC
:100860002A3131052CF020E030E040E050E02AC091
:10087000B801A701022E04C0769567955795479554
:100880000A94D2F781E090E0A0E0B0E004C0880FC5
:10089000991FAA1FBB1F2A95D2F70197A109B10979
:1008A0008E219F21A023B1230097A105B10521F03E
:1008B00081E090E0A0E0B0E09A01AB01282B392B59
:1008C0004A2B5B2BDA01C9018F779070A070B07052
:1008D00080349105A105B10539F427FF09C0205CDA
:1008E0003F4F4F4F5F4F04C0215C3F4F4F4F5F4F13
:1008F000E0E0F0E02030A0E03A07A0E04A07A0E402
:100900005A0710F0E1E0F0E079018A0127C0603871
:10091000710564F5FB01E158FF4FD801C7018F77DE
:100920009070A070B07080349105A105B10539F4C4
:10093000E7FE0DC080E490E0A0E0B0E004C08FE3EB
:1009400090E0A0E0B0E0E80EF91E0A1F1B1F17FFA1
:1009500005C016950795F794E794319687E01695AC
:100960000795F794E7948A95D1F705C0EE24FF2404
:100970008701EFEFF0E06E2F679566276795902F60
:100980009F77D794DD24D7948E2F8695492F462BB9
:10099000582F5D29B701CA011F910F91FF90EF9069
:1009A000DF900895FC01DB01408151812281622F9B
:1009B0006F7770E0221F2227221F9381892F880FD3
:1009C000822B282F30E0991F9927991F11969C930D
:1009D000119721153105A9F54115510561057105DD
:1009E00011F482E037C082E89FEF13969C938E93B8
:1009F00012979A01AB0167E0220F331F441F551F66
:100A00006A95D1F783E08C930DC0220F331F441FEA
:100A1000551F12968D919C911397019713969C9355
:100A20008E931297203080E0380780E0480780E4FA
:100A3000580758F314962D933D934D935C93179755
:100A400008952F3F310579F4411551056105710570
:100A500019F484E08C93089564FF03C081E08C93C3
:100A600012C01C9210C02F57304013963C932E9307
:100A7000129783E08C9387E0440F551F661F771F02
:100A80008A95D1F7706414964D935D936D937C9322
:100A9000179708951F93DC01FB019C91923008F495
:100AA00047C08081823008F443C0943051F41196DD
:100AB0001C91843099F58181682F70E0611B710968
:100AC0003FC0843021F0923031F48230B9F181811D
:100AD000882389F12DC011961C9111978230F1F075
:100AE00081811817D9F412962D913C911397828128
:100AF00093818217930794F028173907BCF0149656
:100B00008D919D910D90BC91A02D248135814681C0
:100B10005781281739074A075B0718F4112341F05A
:100B20000AC082179307A407B50740F4112319F0F0
:100B300061E070E005C06FEF7FEF02C060E070E041
:100B4000CB011F910895DF93CF93CDB7DEB7A1E41A
:100B5000B0E0E1E4F0E0808188608C93CF91DF9198
:100B60000895DF93CF93CDB7DEB7E1E4F0E088E1FD
:100B70008083E1E4F0E01082CF91DF910895DF936C
:100B8000CF930F92CDB7DEB78983A1E4B0E0E1E463
:100B9000F0E08081887F8C93A1E4B0E0E1E4F0E0B4
:100BA00090818981892B8C930F90CF91DF9108954B
:100BB000DF93CF93CDB7DEB7A0E4B0E0E0E4F0E0A0
:100BC000808180688C93A0E4B0E0E0E4F0E0808174
:100BD0008F7B8C93A0E4B0E0E0E4F0E080818F7E36
:100BE0008C93A0E4B0E0E0E4F0E080818F7D8C9312
:100BF000A0E4B0E0E0E4F0E08081877F8C93A0E4A3
:100C0000B0E0E0E4F0E0808184608C93A0E4B0E0A8
:100C1000E0E4F0E0808182608C93AAE2B0E0EAE256
:100C2000F0E080818B7F8C93A0E4B0E0E0E4F0E022
:100C300080818F778C93E0E4F0E01082E9E2F0E0CD
:100C400083E38083AAE2B0E0EAE2F0E0808188609A
:100C50008C93AAE2B0E0EAE2F0E0808180618C93BC
:100C6000CF91DF910895DF93CF930F92CDB7DEB789
:100C70008983EBE2F0E08081829586958770882FEA
:100C800090E0817090700097A1F3ECE2F0E0898130
:100C90008083ABE2B0E0EBE2F0E0808180648C9393
:100CA0000F90CF91DF910895DF93CF9300D0CDB710
:100CB000DEB79A838983EBE2F0E080818823DCF75A
:100CC000ECE2F0E08081E981FA8180830F900F905F
:100CD000CF91DF910895DF93CF93CDB7DEB7A3E532
:100CE000B0E0E3E5F0E080818F7B8C93A3E5B0E09A
:100CF000E3E5F0E0808188608C93A3E5B0E0E3E574
:100D0000F0E080818B7F8C93A3E5B0E0E3E5F0E039
:100D100080818E7F8C93A3E5B0E0E3E5F0E08081F5
:100D200082608C93A9E5B0E0E9E5F0E08081816024
:100D30008C93CF91DF910895DF93CF9300D0CDB7FF
:100D4000DEB79A83898389819A8190930D0180937C
:100D50000C010F900F90CF91DF910895DF93CF9307
:100D60000F92CDB7DEB78983E2E5F0E08981808319
:100D70000F90CF91DF910895DF93CF9300D0CDB73F
:100D8000DEB79A83898389819A8190930F0180933A
:100D90000E010F900F90CF91DF910895DF93CF93C5
:100DA0000F92CDB7DEB78983ECE5F0E089818083CF
:100DB0000F90CF91DF9108951F920F920FB60F926F
:100DC00011242F933F934F935F936F937F938F9350
:100DD0009F93AF93BF93EF93FF93DF93CF93CDB7E1
:100DE000DEB780911001909111010196909311014D
:100DF00080931001809110019091110123E18838B6
:100E0000920749F4E0910E01F0910F0109951092BB
:100E1000110110921001CF91DF91FF91EF91BF91DD
:100E2000AF919F918F917F916F915F914F913F9182
:100E30002F910F900FBE0F901F9018951F920F9239
:100E40000FB60F9211242F933F934F935F936F939D
:100E50007F938F939F93AF93BF93EF93FF93DF9312
:100E6000CF93CDB7DEB78091120190911301019617
:100E700090931301809312018091120190911301BC
:100E80002FE08334920761F4E0910C01F0910D01A1
:100E90000995109213011092120180EC0E94AE0687
:100EA000CF91DF91FF91EF91BF91AF919F918F9182
:100EB0007F916F915F914F913F912F910F900FBE56
:100EC0000F901F901895DF93CF93CDB7DEB7AFE4A7
:100ED000B0E0EFE4F0E080818E7F8C93AFE4B0E08F
:100EE000EFE4F0E0808182608C93AEE4B0E0EEE469
:100EF000F0E0808188608C93AEE4B0E0EEE4F0E056
:100F0000808180618C93AFE4B0E0EFE4F0E0808119
:100F10008F7B8C93AFE4B0E0EFE4F0E080818068F9
:100F20008C93AEE4B0E0EEE4F0E080818E7F8C93B1
:100F3000AEE4B0E0EEE4F0E0808182608C93AEE459
:100F4000B0E0EEE4F0E080818B7F8C93E6E4F0E0AB
:100F50008FE19EE491838083ECE4F0E011821082C3
:100F6000CF91DF910895DF93CF9300D0CDB7DEB757
:100F70009A838983EAE4F0E089819A81918380836E
:100F80000F900F90CF91DF910895DF93CF93CDB75E
:100F9000DEB72C970FB6F894DEBF0FBECDBF6987C2
:100FA0007A878B879C871D821E821F8218861982F2
:100FB0001A821B821C8289859A85AB85BC8528EEA6
:100FC00033E040E050E0BC01CD010E94842BDC0105
:100FD000CB012AEF30E040E050E0BC01CD010E949F
:100FE000B72BDA01C9018D839E83AF83B88719823D
:100FF0001A821B821C821CC0E8E5F0E08081869585
:10100000882F90E0817090700097B1F3A8E5B0E070
:10101000E8E5F0E0808182608C9389819A81AB81E0
:10102000BC810196A11DB11D89839A83AB83BC83CA
:1010300029813A814B815C818D819E81AF81B88508
:10104000281739074A075B07B8F22C960FB6F894B1
:10105000DEBF0FBECDBFCF91DF910895DF93CF9359
:10106000CDB7DEB7ADE2B0E0EDE2F0E080818061C7
:101070008C93ADE2B0E0EDE2F0E080818F7D8C9367
:10108000ADE2B0E0EDE2F0E08081877F8C93ADE2ED
:10109000B0E0EDE2F0E080818B7F8C93ADE2B0E0D8
:1010A000EDE2F0E0808181608C93ADE2B0E0EDE2B2
:1010B000F0E080818D7F8C93AEE2B0E0EEE2F0E074
:1010C00080818E7F8C93ADE2B0E0EDE2F0E0808134
:1010D00080648C93CF91DF910895DF93CF93CDB748
:1010E000DEB7ADE2B0E0EDE2F0E080818F7E8C9380
:1010F000ADE2B0E0EDE2F0E080818F7D8C93ADE277
:10110000B0E0EDE2F0E08081877F8C93ADE2B0E06B
:10111000EDE2F0E080818B7F8C93ADE2B0E0EDE218
:10112000F0E0808180648C93CF91DF910895DF930C
:10113000CF930F92CDB7DEB78983EFE2F0E08981DC
:101140008083EEE2F0E080818823DCF7AEE2B0E05D
:10115000EEE2F0E0808180688C93EFE2F0E0808145
:101160000F90CF91DF910895DF93CF93CDB7DEB786
:10117000AFE5B0E0EFE5F0E0808180688C93CF913F
:10118000DF910895DF93CF93CDB7DEB7AFE5B0E041
:10119000EFE5F0E080818F778C93CF91DF91089518
:1011A000DF93CF93CDB7DEB7ABE5B0E0EBE5F0E092
:1011B000808180648C9383E062E040E00E94200C98
:1011C00083E062E041E00E94100BA5E5B0E0E5E5B8
:1011D000F0E0808182608C93A5E5B0E0E5E5F0E089
:1011E00080818E7F8C93CF91DF910895DF93CF9391
:1011F000CDB7DEB72A970FB6F894DEBF0FBECDBFCE
:1012000089836A838981282F30E03A8729878985F5
:101210009A858130910509F46DC029853A8522307F
:10122000310509F4C9C089859A85009709F0E9C09C
:10123000ABE5B0E0EBE5F0E0808180648C938A81DF
:10124000282F30E038872F838F8198858130910552
:1012500021F12F813885223031052CF48F8198853A
:10126000009761F0CEC02F8138852230310521F101
:101270008F8198858330910571F1C3C0A5E5B0E0F9
:10128000E5E5F0E0808182608C93A5E5B0E0E5E5DE
:10129000F0E080818E7F8C93B4C0A5E5B0E0E5E5F9
:1012A000F0E0808182608C93A5E5B0E0E5E5F0E0B8
:1012B000808181608C93A5C0A5E5B0E0E5E5F0E014
:1012C00080818D7F8C93A5E5B0E0E5E5F0E080813D
:1012D0008E7F8C9396C0A5E5B0E0E5E5F0E08081D7
:1012E0008D7F8C93A5E5B0E0E5E5F0E0808181603D
:1012F0008C9387C0ABE5B0E0EBE5F0E080818068DF
:101300008C938A81282F30E03E832D838D819E81AE
:101310008130910521F12D813E81223031052CF45F
:101320008D819E81009761F06CC02D813E812230BD
:10133000310521F18D819E818330910571F161C06C
:10134000A5E5B0E0E5E5F0E0808188608C93A5E557
:10135000B0E0E5E5F0E080818B7F8C9352C0A5E59D
:10136000B0E0E5E5F0E0808188608C93A5E5B0E031
:10137000E5E5F0E0808184608C9343C0A5E5B0E0B2
:10138000E5E5F0E08081877F8C93A5E5B0E0E5E5B9
:10139000F0E080818B7F8C9334C0A5E5B0E0E5E57B
:1013A000F0E08081877F8C93A5E5B0E0E5E5F0E093
:1013B000808184608C9325C0ABE5B0E0EBE5F0E084
:1013C000808180628C938A81282F30E03C832B833C
:1013D0008B819C81009731F02B813C81213031053C
:1013E00049F00FC0A4E5B0E0E4E5F0E080818F7B38
:1013F0008C9307C0A4E5B0E0E4E5F0E08081806470
:101400008C932A960FB6F894DEBF0FBECDBFCF9156
:10141000DF910895DF93CF9300D00F92CDB7DEB761
:1014200089838981282F30E03B832A838A819B81AD
:101430008130910589F02A813B8122303105A1F06C
:101440008A819B810097B9F4ABE5B0E0EBE5F0E071
:1014500080818F7B8C930FC0ABE5B0E0EBE5F0E0D3
:1014600080818F778C9307C0ABE5B0E0EBE5F0E0CF
:1014700080818F7D8C930F900F900F90CF91DF9193
:101480000895DF93CF9300D0CDB7DEB79A838983D9
:1014900089819A8190931501809314010F900F9088
:1014A000CF91DF910895DF93CF9300D0CDB7DEB712
:1014B0009A83898389819A81909317018093160179
:1014C0000F900F90CF91DF910895DF93CF9300D0CD
:1014D000CDB7DEB79A83898389819A819093190168
:1014E000809318010F900F90CF91DF9108951F9274
:1014F0000F920FB60F9211242F933F934F935F9348
:101500006F937F938F939F93AF93BF93EF93FF93CB
:10151000DF93CF93CDB7DEB7809114019091150181
:10152000009729F0E0911401F09115010995CF91F0
:10153000DF91FF91EF91BF91AF919F918F917F913B
:101540006F915F914F913F912F910F900FBE0F9030
:101550001F9018951F920F920FB60F9211242F9380
:101560003F934F935F936F937F938F939F93AF932B
:10157000BF93EF93FF93DF93CF93CDB7DEB7809107
:10158000160190911701009729F0E0911601F09152
:1015900017010995CF91DF91FF91EF91BF91AF9125
:1015A0009F918F917F916F915F914F913F912F917B
:1015B0000F900FBE0F901F9018951F920F920FB6AD
:1015C0000F9211242F933F934F935F936F937F93C9
:1015D0008F939F93AF93BF93EF93FF93DF93CF933B
:1015E000CDB7DEB78091180190911901009729F0CD
:1015F000E0911801F09119010995CF91DF91FF91C8
:10160000EF91BF91AF919F918F917F916F915F917A
:101610004F913F912F910F900FBE0F901F901895F3
:10162000DF93CF93CDB7DEB729970FB6F894DEBF1F
:101630000FBECDBF89836A834B838981843008F0D4
:10164000F6C08A81883008F0F2C08B81282F30E004
:101650003987288788859985009739F028853985C5
:101660002130310509F475C0E2C08981282F30E0AE
:101670003F832E838E819F818130910559F12E8188
:101680003F81223031052CF48E819F81009769F0D3
:10169000CEC02E813F812230310589F18E819F811C
:1016A0008330910509F440C0C2C0ABE3B0E0EBE386
:1016B000F0E08081482F8A81282F30E081E090E09F
:1016C000022E02C0880F991F0A94E2F780958423A6
:1016D0008C93ADC0A8E3B0E0E8E3F0E08081482F50
:1016E0008A81282F30E081E090E0022E02C0880F2E
:1016F000991F0A94E2F7809584238C9398C0A5E300
:10170000B0E0E5E3F0E08081482F8A81282F30E0C7
:1017100081E090E0022E02C0880F991F0A94E2F740
:10172000809584238C9383C0A2E3B0E0E2E3F0E0F1
:101730008081482F8A81282F30E081E090E0022EBE
:1017400002C0880F991F0A94E2F7809584238C9336
:101750006EC08981282F30E03D832C838C819D8150
:101760008130910549F12C813D81223031052CF4E5
:101770008C819D81009761F05AC02C813D8122307F
:10178000310571F18C819D8183309105E9F14FC064
:10179000ABE3B0E0EBE3F0E08081482F8A81282FB3
:1017A00030E081E090E0022E02C0880F991F0A9479
:1017B000E2F7842B8C933BC0A8E3B0E0E8E3F0E0D1
:1017C0008081482F8A81282F30E081E090E0022E2E
:1017D00002C0880F991F0A94E2F7842B8C9327C0CC
:1017E000A5E3B0E0E5E3F0E08081482F8A81282F6F
:1017F00030E081E090E0022E02C0880F991F0A9429
:10180000E2F7842B8C9313C0A2E3B0E0E2E3F0E0B4
:101810008081482F8A81282F30E081E090E0022EDD
:1018200002C0880F991F0A94E2F7842B8C932996A3
:101830000FB6F894DEBF0FBECDBFCF91DF910895F4
:10184000DF93CF93CDB7DEB729970FB6F894DEBFFD
:101850000FBECDBF89836A834B838981843008F0B2
:10186000F6C08A81883008F0F2C08B81282F30E0E2
:101870003987288788859985009739F028853985A3
:101880002130310509F475C0E2C08981282F30E08C
:101890003F832E838E819F818130910559F12E8166
:1018A0003F81223031052CF48E819F81009769F0B1
:1018B000CEC02E813F812230310589F18E819F81FA
:1018C0008330910509F440C0C2C0AAE3B0E0EAE366
:1018D000F0E08081482F8A81282F30E081E090E07D
:1018E000022E02C0880F991F0A94E2F78095842384
:1018F0008C93ADC0A7E3B0E0E7E3F0E08081482F30
:101900008A81282F30E081E090E0022E02C0880F0B
:10191000991F0A94E2F7809584238C9398C0A4E3DE
:10192000B0E0E4E3F0E08081482F8A81282F30E0A6
:1019300081E090E0022E02C0880F991F0A94E2F71E
:10194000809584238C9383C0A1E3B0E0E1E3F0E0D1
:101950008081482F8A81282F30E081E090E0022E9C
:1019600002C0880F991F0A94E2F7809584238C9314
:101970006EC08981282F30E03D832C838C819D812E
:101980008130910549F12C813D81223031052CF4C3
:101990008C819D81009761F05AC02C813D8122305D
:1019A000310571F18C819D8183309105E9F14FC042
:1019B000AAE3B0E0EAE3F0E08081482F8A81282F93
:1019C00030E081E090E0022E02C0880F991F0A9457
:1019D000E2F7842B8C933BC0A7E3B0E0E7E3F0E0B1
:1019E0008081482F8A81282F30E081E090E0022E0C
:1019F00002C0880F991F0A94E2F7842B8C9327C0AA
:101A0000A4E3B0E0E4E3F0E08081482F8A81282F4E
:101A100030E081E090E0022E02C0880F991F0A9406
:101A2000E2F7842B8C9313C0A1E3B0E0E1E3F0E094
:101A30008081482F8A81282F30E081E090E0022EBB
:101A400002C0880F991F0A94E2F7842B8C93299681
:101A50000FB6F894DEBF0FBECDBFCF91DF910895D2
:101A6000DF93CF9300D000D00F92CDB7DEB78A833B
:101A70006B838A81282F30E03D832C834C815D81EC
:101A80004130510541F18C819D818230910534F4C2
:101A90002C813D812115310561F052C04C815D8161
:101AA0004230510551F18C819D8183309105B9F10E
:101AB00047C0E9E3F0E08081282F30E08B81882F58
:101AC00090E0A90102C0559547958A95E2F7CA01B1
:101AD0008170898335C0E6E3F0E08081282F30E013
:101AE0008B81882F90E0A90102C0559547958A9572
:101AF000E2F7CA018170898323C0E3E3F0E08081CB
:101B0000282F30E08B81882F90E0A90102C05595E5
:101B100047958A95E2F7CA018170898311C0E0E395
:101B2000F0E08081282F30E08B81882F90E0A901A0
:101B300002C0559547958A95E2F7CA01817089835D
:101B400089810F900F900F900F900F90CF91DF91A0
:101B50000895DF93CF9300D000D0CDB7DEB789834F
:101B60006A838981843090F58981282F30E03C8315
:101B70002B838B819C8181309105D1F02B813C811D
:101B8000223031052CF48B819C81009761F01EC0BE
:101B90002B813C812230310581F08B819C81833007
:101BA000910581F013C0EBE3F0E08A8180830EC0E1
:101BB000E8E3F0E08A81808309C0E5E3F0E08A8110
:101BC000808304C0E2E3F0E08A8180830F900F906D
:101BD0000F900F90CF91DF910895DF93CF9300D0B6
:101BE00000D0CDB7DEB789836A838981843090F5D0
:101BF0008981282F30E03C832B838B819C8181302D
:101C00009105D1F02B813C81223031052CF48B8160
:101C10009C81009761F01EC02B813C8122303105F0
:101C200081F08B819C818330910581F013C0EAE3C0
:101C3000F0E08A8180830EC0E7E3F0E08A81808350
:101C400009C0E4E3F0E08A81808304C0E1E3F0E0CE
:101C50008A8180830F900F900F900F90CF91DF912A
:101C60000895DF93CF9300D000D0CDB7DEB78A833D
:101C70008A81282F30E03C832B838B819C818130AB
:101C80009105D1F02B813C81223031052CF48B81E0
:101C90009C81009761F01EC02B813C812230310570
:101CA00081F08B819C818330910581F013C0E9E341
:101CB000F0E0808189830EC0E6E3F0E080818983D3
:101CC00009C0E3E3F0E08081898304C0E0E3F0E051
:101CD0008081898389810F900F900F900F90CF9111
:101CE000DF910895DF93CF93CDB7DEB7A7E2B0E0E1
:101CF000E7E2F0E0808180648C93A7E2B0E0E7E265
:101D0000F0E080818F778C93A7E2B0E0E7E2F0E02B
:101D100080818F7D8C93A6E2B0E0E6E2F0E08081E6
:101D200080688C93A6E2B0E0E6E2F0E080818F7DEF
:101D30008C93A6E2B0E0E6E2F0E080818F7E8C93A7
:101D4000A6E2B0E0E6E2F0E0808184608C93A6E257
:101D5000B0E0E6E2F0E0808182608C93A6E2B0E041
:101D6000E6E2F0E080818E7F8C93CF91DF91089541
:101D7000DF93CF93CDB7DEB729970FB6F894DEBFC8
:101D80000FBECDBF8987A7E2B0E0E7E2F0E0808137
:101D9000807E8C93A7E2B0E0E7E2F0E09081898555
:101DA000892B8C93A6E2B0E0E6E2F0E080818064CB
:101DB0008C93E6E2F0E0808182958F70882F90E02E
:101DC000817090700097A9F3A6E2B0E0E6E2F0E03F
:101DD000808180618C93E4E2F0E08081282F30E004
:101DE000E5E2F0E08081882F90E0982F8827820F2D
:101DF000931FAA2797FDA095BA2F8D839E83AF834B
:101E0000B8878D819E81AF81B88528E833E140E0B5
:101E100050E0BC01CD010E94842BDC01CB01072ED8
:101E20007AE0B695A795979587957A95D1F7702D15
:101E300089839A83AB83BC8389819A81AB81BC817E
:101E4000BC01CD0129960FB6F894DEBF0FBECDBF01
:101E5000CF91DF910895DF93CF93CDB7DEB727976A
:101E60000FB6F894DEBF0FBECDBF89837B836A8334
:101E700080911C01813021F08A819B81009729F497
:101E80001C821D821E821F8232C081E080931C0151
:101E9000A7E2B0E0E7E2F0E08081807E8C93A7E2E9
:101EA000B0E0E7E2F0E090818981892B8C938A8110
:101EB0009B8190931B0180931A01A6E2B0E0E6E2B9
:101EC000F0E0808180648C93A6E2B0E0E6E2F0E08E
:101ED000808188608C9380911D0190911E01A0915A
:101EE0001F01B09120018C839D83AE83BF838C81C1
:101EF0009D81AE81BF81BC01CD0127960FB6F894BC
:101F0000DEBF0FBECDBFCF91DF9108951F920F921C
:101F10000FB60F9211242F933F934F935F936F93BC
:101F20007F938F939F93AF93BF93EF93FF93DF9331
:101F3000CF93CDB7DEB7E4E2F0E08081282F30E028
:101F4000E5E2F0E08081882F90E0982F8827820FCB
:101F5000931FAA2797FDA095BA2F809321019093F4
:101F60002201A0932301B09324018091210190913B
:101F70002201A0912301B091240128E833E140E03F
:101F800050E0BC01CD010E94842BDC01CB01072E67
:101F90007AE0B695A795979587957A95D1F7702DA4
:101FA00080931D0190931E01A0931F01B093200107
:101FB00010921C01E0911A01F0911B010995A6E213
:101FC000B0E0E6E2F0E08081877F8C93CF91DF91F3
:101FD000FF91EF91BF91AF919F918F917F916F9101
:101FE0005F914F913F912F910F900FBE0F901F90D7
:101FF0001895DF93CF93CDB7DEB783E064E041E07F
:102000000E94200C83E065E041E00E94200C83E008
:1020100066E041E00E94200C83E067E041E00E941E
:10202000200C83E064E041E00E94100B83E065E057
:1020300041E00E94100B83E066E041E00E94100B3B
:1020400083E067E041E00E94100BCF91DF9108959B
:102050000F931F93DF93CF93CDB7DEB7CE57D0400A
:102060000FB6F894DEBF0FBECDBFFE01E658FF4F9E
:102070008083FE01E558FF4F71836083FE01E558C0
:10208000FF4F80819181982F8827990F28E631E0B2
:10209000B9010E94A32BCB01FE01EA58FF4FCC01EE
:1020A000A0E0B0E080839183A283B383FE01E65871
:1020B000FF4F8081282F30E0EF963FAF2EAFEF9794
:1020C000EF968EAD9FADEF97009709F426C3EF967C
:1020D000EEADFFADEF97E130F10509F059C5FE0116
:1020E000EE58FF4F108211821282138200C383E0E8
:1020F00064E040E00E94100B83E065E041E00E9454
:10210000100B83E066E041E00E94100B83E067E083
:1021100041E00E94100BFE01E359FF4F80E090E088
:10212000A0E2B1E480839183A283B3838E01075937
:102130001F4FFE01E359FF4F6081718182819381BE
:1021400020E030E04AEF54E40E941F02DC01CB01A2
:10215000F80180839183A283B383FE01E759FF4F87
:10216000608171818281938120E030E040E85FE30B
:102170000E947903882344F4FE01E959FF4F81E06E
:1021800090E09183808364C0FE01E759FF4F608136
:1021900071818281938120E03FEF4FE757E40E94F5
:1021A000190318160CF043C0FE01E359FF4F60817C
:1021B00071818281938120E030E040E251E40E940D
:1021C0001F02DC01CB018E0109591F4FBC01CD015B
:1021D0000E944900DC01CB01F801918380831FC07C
:1021E000FE01EB59FF4F88EC90E091838083FE0164
:1021F000EB59FF4F808191810197F1F7FE01EB5977
:10220000FF4F91838083DE01A959BF4FFE01E95939
:10221000FF4F80819181019711969C938E93FE01CF
:10222000E959FF4F808191810097D1F627C08E0137
:1022300009591F4FFE01E759FF4F6081718182816B
:1022400093810E944900DC01CB01F80191838083D6
:10225000DE01AD59BF4FFE01E959FF4F80819181E9
:102260008D939C93FE01ED59FF4F808191810197E1
:10227000F1F7FE01ED59FF4F9183808383E064E025
:1022800041E00E94100B83E065E040E00E94100BEB
:1022900083E066E041E00E94100B83E067E041E0EC
:1022A0000E94100BFE01E15AFF4F80E090E0A0E297
:1022B000B1E480839183A283B3838E01055A1F4FBB
:1022C000FE01E15AFF4F608171818281938120E09C
:1022D00030E04AEF54E40E941F02DC01CB01F80118
:1022E00080839183A283B383FE01E55AFF4F60810F
:1022F00071818281938120E030E040E85FE30E94B9
:102300007903882344F4FE01E75AFF4F81E090E00F
:102310009183808364C0FE01E55AFF4F6081718123
:102320008281938120E03FEF4FE757E40E94190339
:1023300018160CF043C0FE01E15AFF4F6081718115
:102340008281938120E030E040E251E40E941F024C
:10235000DC01CB018E01075A1F4FBC01CD010E9449
:102360004900DC01CB01F801918380831FC0FE018D
:10237000E95AFF4F88EC90E091838083FE01E95A8F
:10238000FF4F808191810197F1F7FE01E95AFF4FDC
:1023900091838083DE01A75ABF4FFE01E75AFF4FAA
:1023A00080819181019711969C938E93FE01E75A4B
:1023B000FF4F808191810097D1F627C08E01075A87
:1023C0001F4FFE01E55AFF4F608171818281938129
:1023D0000E944900DC01CB01F80191838083DE017A
:1023E000AB5ABF4FFE01E75AFF4F808191818D9319
:1023F0009C93FE01EB5AFF4F808191810197F1F789
:10240000FE01EB5AFF4F9183808383E064E041E05B
:102410000E94100B83E065E041E00E94100B83E016
:1024200066E040E00E94100B83E067E041E00E941C
:10243000100BFE01EF5AFF4F80E090E0A0E2B1E404
:1024400080839183A283B3838E01035B1F4FFE01C0
:10245000EF5AFF4F608171818281938120E030E0EB
:102460004AEF54E40E941F02DC01CB01F801808393
:102470009183A283B383FE01E35BFF4F608171818F
:102480008281938120E030E040E85FE30E9479039D
:10249000882344F4FE01E55BFF4F81E090E09183E7
:1024A000808364C0FE01E35BFF4F608171818281A4
:1024B000938120E03FEF4FE757E40E94190318167D
:1024C0000CF043C0FE01EF5AFF4F608171818281A1
:1024D000938120E030E040E251E40E941F02DC01E1
:1024E000CB018E01055B1F4FBC01CD010E9449004D
:1024F000DC01CB01F801918380831FC0FE01E75B03
:10250000FF4F88EC90E091838083FE01E75BFF4FF3
:10251000808191810197F1F7FE01E75BFF4F918385
:102520008083DE01A55BBF4FFE01E55BFF4F80812D
:102530009181019711969C938E93FE01E55BFF4F6D
:10254000808191810097D1F627C08E01055B1F4FD6
:10255000FE01E35BFF4F60817181828193810E9464
:102560004900DC01CB01F80191838083DE01A95B86
:10257000BF4FFE01E55BFF4F808191818D939C935E
:10258000FE01E95BFF4F808191810197F1F7FE0128
:10259000E95BFF4F9183808383E064E041E00E9428
:1025A000100B83E065E041E00E94100B83E066E0E1
:1025B00041E00E94100B83E067E040E00E94100BB6
:1025C000FE01ED5BFF4F80E090E0A0E2B1E480838C
:1025D0009183A283B3838E01015C1F4FFE01ED5BEB
:1025E000FF4F608171818281938120E030E04AEF6A
:1025F00054E40E941F02DC01CB01F8018083918327
:10260000A283B383FE01FF966081718182819381F1
:1026100020E030E040E85FE30E94790388232CF457
:1026200081E090E09EAF8DAF46C0FE01FF966081D5
:1026300071818281938120E03FEF4FE757E40E9450
:102640001903181664F5FE01ED5BFF4F608171817F
:102650008281938120E030E040E251E40E941F0239
:10266000DC01CB01BC01CD010E944900DC01CB01A2
:102670009EAF8DAF0FC088EC90E09CAF8BAF8BAD61
:102680009CAD0197F1F79CAF8BAF8DAD9EAD0197DF
:102690009EAF8DAF8DAD9EAD009769F716C0FE0160
:1026A000FF9660817181828193810E944900DC01E3
:1026B000CB019EAF8DAF8DAD9EAD9AAF89AF89AD89
:1026C0009AAD0197F1F79AAF89AF9E012E583F4F0F
:1026D000FE01EE58FF4F80819181A281B381019666
:1026E000A11DB11DF90180839183A283B383FE01F3
:1026F000EE58FF4FDE01AA58BF4F20813181428141
:1027000053818D919D910D90BC91A02D2817390773
:102710004A075B0708F4EBCC3BC2FE01EF58FF4FC2
:10272000108221C283E064E041E00E94100B83E04C
:1027300065E041E00E94100B83E066E041E00E940A
:10274000100B83E067E040E00E94100B80E090E017
:10275000A0E2B1E48DAB9EABAFABB8AF6DA97EA9E3
:102760008FA998AD20E030E04AEF54E40E941F02A8
:10277000DC01CB0189AB9AABABABBCAB69A97AA945
:102780008BA99CA920E030E040E85FE30E94790338
:1027900088232CF481E090E098AB8FA73FC069A913
:1027A0007AA98BA99CA920E03FEF4FE757E40E944C
:1027B000190318164CF56DA97EA98FA998AD20E0D4
:1027C00030E040E251E40E941F02DC01CB01BC0179
:1027D000CD010E944900DC01CB0198AB8FA70FC04F
:1027E00088EC90E09EA78DA78DA59EA50197F1F797
:1027F0009EA78DA78FA598A9019798AB8FA78FA5A6
:1028000098A9009769F714C069A97AA98BA99CA90E
:102810000E944900DC01CB0198AB8FA78FA598A936
:102820009CA78BA78BA59CA50197F1F79CA78BA7CD
:1028300083E064E041E00E94100B83E065E041E04A
:102840000E94100B83E066E040E00E94100B83E0E2
:1028500067E041E00E94100B80E090E0A0E2B1E46C
:102860008FA398A7A9A7BAA76FA178A589A59AA5AC
:1028700020E030E04AEF54E40E941F02DC01CB016B
:102880008BA39CA3ADA3BEA36BA17CA18DA19EA194
:1028900020E030E040E85FE30E94790388232CF4D5
:1028A00081E090E09AA389A33FC06BA17CA18DA198
:1028B0009EA120E03FEF4FE757E40E94190318164E
:1028C0004CF56FA178A589A59AA520E030E040E2FB
:1028D00051E40E941F02DC01CB01BC01CD010E942A
:1028E0004900DC01CB019AA389A30FC088EC90E0DA
:1028F00098A38F8F8F8D98A10197F1F798A38F8F51
:1029000089A19AA101979AA389A389A19AA1009765
:1029100069F714C06BA17CA18DA19EA10E94490002
:10292000DC01CB019AA389A389A19AA19E8F8D8FE7
:102930008D8D9E8D0197F1F79E8F8D8F83E064E0E2
:1029400041E00E94100B83E065E040E00E94100B24
:1029500083E066E041E00E94100B83E067E041E025
:102960000E94100B80E090E0A0E2B1E4898F9A8F82
:10297000AB8FBC8F698D7A8D8B8D9C8D20E030E084
:102980004AEF54E40E941F02DC01CB018D8B9E8B29
:10299000AF8BB88F6D897E898F89988D20E030E06C
:1029A00040E85FE30E94790388232CF481E090E003
:1029B0009C8B8B8B3FC06D897E898F89988D20E0A1
:1029C0003FEF4FE757E40E94190318164CF5698D45
:1029D0007A8D8B8D9C8D20E030E040E251E40E94A6
:1029E0001F02DC01CB01BC01CD010E944900DC01CA
:1029F000CB019C8B8B8B0FC088EC90E09A8B898BE2
:102A000089899A890197F1F79A8B898B8B899C899F
:102A100001979C8B8B8B8B899C89009769F714C0DD
:102A20006D897E898F89988D0E944900DC01CB01D8
:102A30009C8B8B8B8B899C89988B8F878F859889B2
:102A40000197F1F7988B8F8783E064E040E00E9464
:102A5000100B83E065E041E00E94100B83E066E02C
:102A600041E00E94100B83E067E041E00E94100B00
:102A700080E090E0A0E2B1E48B879C87AD87BE87C1
:102A80006B857C858D859E8520E030E04AEF54E49F
:102A90000E941F02DC01CB018F839887A987BA8728
:102AA0006F81788589859A8520E030E040E85FE392
:102AB0000E94790388232CF481E090E09E838D832B
:102AC0003FC06F81788589859A8520E03FEF4FE789
:102AD00057E40E94190318164CF56B857C858D858B
:102AE0009E8520E030E040E251E40E941F02DC01BC
:102AF000CB01BC01CD010E944900DC01CB019E83CA
:102B00008D830FC088EC90E09C838B838B819C81AC
:102B10000197F1F79C838B838D819E8101979E8322
:102B20008D838D819E81009769F714C06F817885B0
:102B300089859A850E944900DC01CB019E838D83A3
:102B40008D819E819A83898389819A810197F1F78A
:102B50009A838983DE01AF58BF4FFE01EF58FF4FC4
:102B600080818F5F8C93FE01EF58FF4F8081282F6B
:102B700030E040E050E0FE01EA58FF4F8081918153
:102B8000A281B381281739074A075B0708F4CACD29
:102B9000C258DF4F0FB6F894DEBF0FBECDBFCF9146
:102BA000DF911F910F910895DF93CF93CDB7DEB7DB
:102BB000E8970FB6F894DEBF0FBECDBF83E064E0A8
:102BC00040E00E94100B83E065E041E00E94100BA2
:102BD00083E066E041E00E94100B83E067E041E0A3
:102BE0000E94100B80E090E0A0E2B1E48DAB9EABC0
:102BF000AFABB8AF6DA97EA98FA998AD20E030E04A
:102C00004AEF54E40E941F02DC01CB0189AB9AAB6E
:102C1000ABABBCAB69A97AA98BA99CA920E030E039
:102C200040E85FE30E94790388232CF481E090E080
:102C300098AB8FA73FC069A97AA98BA99CA920E06E
:102C40003FEF4FE757E40E94190318164CF56DA9A2
:102C50007EA98FA998AD20E030E040E251E40E94C7
:102C60001F02DC01CB01BC01CD010E944900DC0147
:102C7000CB0198AB8FA70FC088EC90E09EA78DA7E3
:102C80008DA59EA50197F1F79EA78DA78FA598A961
:102C9000019798AB8FA78FA598A9009769F714C0E3
:102CA00069A97AA98BA99CA90E944900DC01CB01E2
:102CB00098AB8FA78FA598A99CA78BA78BA59CA540
:102CC0000197F1F79CA78BA783E064E041E00E94A5
:102CD000100B83E065E040E00E94100B83E066E0AB
:102CE00041E00E94100B83E067E041E00E94100B7E
:102CF00080E090E0A0E2B1E48FA398A7A9A7BAA7CB
:102D00006FA178A589A59AA520E030E04AEF54E4A8
:102D10000E941F02DC01CB018BA39CA3ADA3BEA329
:102D20006BA17CA18DA19EA120E030E040E85FE393
:102D30000E94790388232CF481E090E09AA389A370
:102D40003FC06BA17CA18DA19EA120E03FEF4FE78A
:102D500057E40E94190318164CF56FA178A589A5B0
:102D60009AA520E030E040E251E40E941F02DC011D
:102D7000CB01BC01CD010E944900DC01CB019AA32B
:102D800089A30FC088EC90E098A38F8F8F8D98A1B6
:102D90000197F1F798A38F8F89A19AA101979AA320
:102DA00089A389A19AA1009769F714C06BA17CA19E
:102DB0008DA19EA10E944900DC01CB019AA389A3A9
:102DC00089A19AA19E8F8D8F8D8D9E8D0197F1F790
:102DD0009E8F8D8F83E064E041E00E94100B83E0C2
:102DE00065E041E00E94100B83E066E040E00E9455
:102DF000100B83E067E041E00E94100B80E090E060
:102E0000A0E2B1E4898F9A8FAB8FBC8F698D7A8DE8
:102E10008B8D9C8D20E030E04AEF54E40E941F022D
:102E2000DC01CB018D8B9E8BAF8BB88F6D897E893A
:102E30008F89988D20E030E040E85FE30E947903BD
:102E400088232CF481E090E09C8B8B8B3FC06D89B4
:102E50007E898F89988D20E03FEF4FE757E40E94ED
:102E6000190318164CF5698D7A8D8B8D9C8D20E099
:102E700030E040E251E40E941F02DC01CB01BC01C2
:102E8000CD010E944900DC01CB019C8B8B8B0FC0D4
:102E900088EC90E09A8B898B89899A890197F1F760
:102EA0009A8B898B8B899C8901979C8B8B8B8B89C7
:102EB0009C89009769F714C06D897E898F89988DE8
:102EC0000E944900DC01CB019C8B8B8B8B899C89F8
:102ED000988B8F878F8598890197F1F7988B8F87CB
:102EE00083E064E041E00E94100B83E065E041E094
:102EF0000E94100B83E066E041E00E94100B83E02B
:102F000067E040E00E94100B80E090E0A0E2B1E4B6
:102F10008B879C87AD87BE876B857C858D859E85DD
:102F200020E030E04AEF54E40E941F02DC01CB01B4
:102F30008F839887A987BA876F81788589859A85D5
:102F400020E030E040E85FE30E94790388232CF41E
:102F500081E090E09E838D833FC06F817885898575
:102F60009A8520E03FEF4FE757E40E9419031816B7
:102F70004CF56B857C858D859E8520E030E040E2B8
:102F800051E40E941F02DC01CB01BC01CD010E9473
:102F90004900DC01CB019E838D830FC088EC90E05B
:102FA0009C838B838B819C810197F1F79C838B831E
:102FB0008D819E8101979E838D838D819E81009757
:102FC00069F7FCCD6F81788589859A850E944900D3
:102FD000DC01CB019E838D838D819E819A838983C1
:102FE00089819A810197F1F79A838983E7CDDF93ED
:102FF000CF93CDB7DEB72E970FB6F894DEBF0FBED6
:10300000CDBF83E064E041E00E94100B83E065E007
:1030100041E00E94100B83E066E041E00E94100B4B
:1030200083E067E041E00E94100B80E090E0A0E2C6
:10303000B1E48B879C87AD87BE876B857C858D854A
:103040009E8520E030E04AEF54E40E941F02DC013C
:10305000CB018F839887A987BA876F817885898507
:103060009A8520E030E040E85FE30E9479038823FE
:103070002CF481E090E09E838D833FC06F81788542
:1030800089859A8520E03FEF4FE757E40E941903B6
:1030900018164CF56B857C858D859E8520E030E08B
:1030A00040E251E40E941F02DC01CB01BC01CD01D2
:1030B0000E944900DC01CB019E838D830FC088EC08
:1030C00090E09C838B838B819C810197F1F79C839B
:1030D0008B838D819E8101979E838D838D819E81BF
:1030E000009769F714C06F81788589859A850E9459
:1030F0004900DC01CB019E838D838D819E819A8363
:10310000898389819A810197F1F79A8389832E9621
:103110000FB6F894DEBF0FBECDBFCF91DF910895FB
:10312000DF93CF930F92CDB7DEB7898389810E9459
:10313000C5180F90CF91DF910895DF93CF9300D002
:10314000CDB7DEB789836A838A81882F90E0FC013E
:10315000EF50FF4F90818981692F0E94FE180F90D8
:103160000F90CF91DF910895DF93CF9300D0CDB72B
:10317000DEB789836A8389816A8141E00E94200CDD
:103180000F900F90CF91DF910895DF93CF930F921F
:10319000CDB7DEB7898389816FEF0E94ED0D0F9067
:1031A000CF91DF910895DF93CF9300D000D00F929D
:1031B000CDB7DEB789836A834B838B81282F30E0BC
:1031C0003D832C838C819D81009759F02C813D811A
:1031D0002130310559F489816A8141E00E94100B48
:1031E00005C089816A8140E00E94100B0F900F900A
:1031F0000F900F900F90CF91DF910895DF93CF93B1
:1032000000D0CDB7DEB789836A8389816A810E9445
:10321000A90D0F900F90CF91DF9108950F931F93F9
:10322000DF93CF93CDB7DEB7C654D0400FB6F89436
:10323000DEBF0FBECDBF80E064E041E00E94200C05
:1032400080E065E041E00E94200C80E066E041E023
:103250000E94200C81E06FEF0E94ED0DFE01ED5BFE
:10326000FF4F80E090E0A8E4B2E480839183A283E2
:10327000B3838E01015C1F4FFE01ED5BFF4F608148
:1032800071818281938120E030E04AEF54E40E9412
:103290001F02DC01CB01F80180839183A283B383F9
:1032A000FE01FF96608171818281938120E030E090
:1032B00040E85FE30E94790388232CF481E090E0EA
:1032C0009EAF8DAF46C0FE01FF9660817181828105
:1032D000938120E03FEF4FE757E40E94190318164F
:1032E00064F5FE01ED5BFF4F608171818281938106
:1032F00020E030E040E251E40E941F02DC01CB01FB
:10330000BC01CD010E944900DC01CB019EAF8DAF15
:103310000FC088EC90E09CAF8BAF8BAD9CAD01975C
:10332000F1F79CAF8BAF8DAD9EAD01979EAF8DAF8A
:103330008DAD9EAD009769F716C0FE01FF966081C6
:103340007181828193810E944900DC01CB019EAF93
:103350008DAF8DAD9EAD9AAF89AF89AD9AAD019716
:10336000F1F79AAF89AF88E30E94931B80E090E069
:10337000A0E0B0E48DAB9EABAFABB8AF6DA97EA9BA
:103380008FA998AD20E030E04AEF54E40E941F027C
:10339000DC01CB0189AB9AABABABBCAB69A97AA919
:1033A0008BA99CA920E030E040E85FE30E9479030C
:1033B00088232CF481E090E098AB8FA73FC069A9E7
:1033C0007AA98BA99CA920E03FEF4FE757E40E9420
:1033D000190318164CF56DA97EA98FA998AD20E0A8
:1033E00030E040E251E40E941F02DC01CB01BC014D
:1033F000CD010E944900DC01CB0198AB8FA70FC023
:1034000088EC90E09EA78DA78DA59EA50197F1F76A
:103410009EA78DA78FA598A9019798AB8FA78FA579
:1034200098A9009769F714C069A97AA98BA99CA9E2
:103430000E944900DC01CB0198AB8FA78FA598A90A
:103440009CA78BA78BA59CA50197F1F79CA78BA7A1
:1034500081E00E94931B80E090E0A0E0B0E48FA3A5
:1034600098A7A9A7BAA76FA178A589A59AA520E0D2
:1034700030E04AEF54E40E941F02DC01CB018BA331
:103480009CA3ADA3BEA36BA17CA18DA19EA120E0B6
:1034900030E040E85FE30E94790388232CF481E068
:1034A00090E09AA389A33FC06BA17CA18DA19EA1AE
:1034B00020E03FEF4FE757E40E94190318164CF540
:1034C0006FA178A589A59AA520E030E040E251E4FB
:1034D0000E941F02DC01CB01BC01CD010E9449000A
:1034E000DC01CB019AA389A30FC088EC90E098A3DC
:1034F0008F8F8F8D98A10197F1F798A38F8F89A156
:103500009AA101979AA389A389A19AA1009769F723
:1035100014C06BA17CA18DA19EA10E944900DC0179
:10352000CB019AA389A389A19AA19E8F8D8F8D8D9E
:103530009E8D0197F1F79E8F8D8F8CE00E94931BDB
:1035400080E090E0A0E0B0E4898F9A8FAB8FBC8FD1
:10355000698D7A8D8B8D9C8D20E030E04AEF54E4AC
:103560000E941F02DC01CB018D8B9E8BAF8BB88F2D
:103570006D897E898F89988D20E030E040E85FE397
:103580000E94790388232CF481E090E09C8B8B8B44
:103590003FC06D897E898F89988D20E03FEF4FE78E
:1035A00057E40E94190318164CF5698D7A8D8B8D9E
:1035B0009C8D20E030E040E251E40E941F02DC01DB
:1035C000CB01BC01CD010E944900DC01CB019C8BE9
:1035D0008B8B0FC088EC90E09A8B898B89899A89B4
:1035E0000197F1F79A8B898B8B899C8901979C8B2A
:1035F0008B8B8B899C89009769F714C06D897E89B4
:103600008F89988D0E944900DC01CB019C8B8B8BAC
:103610008B899C89988B8F878F8598890197F1F783
:10362000988B8F8786E00E94931B80E090E0A0E05B
:10363000B0E48B879C87AD87BE876B857C858D8545
:103640009E8520E030E04AEF54E40E941F02DC0136
:10365000CB018F839887A987BA876F817885898501
:103660009A8520E030E040E85FE30E9479038823F8
:103670002CF481E090E09E838D833FC06F8178853C
:1036800089859A8520E03FEF4FE757E40E941903B0
:1036900018164CF56B857C858D859E8520E030E085
:1036A00040E251E40E941F02DC01CB01BC01CD01CC
:1036B0000E944900DC01CB019E838D830FC088EC02
:1036C00090E09C838B838B819C810197F1F79C8395
:1036D0008B838D819E8101979E838D838D819E81B9
:1036E000009769F714C06F81788589859A850E9453
:1036F0004900DC01CB019E838D838D819E819A835D
:10370000898389819A810197F1F79A838983CA5BBA
:10371000DF4F0FB6F894DEBF0FBECDBFCF91DF9164
:103720001F910F910895DF93CF93CDB7DEB72F97F9
:103730000FB6F894DEBF0FBECDBF8F8780E064E088
:1037400040E00E94100B80E065E040E00E94100B1A
:1037500081E06F850E94A90D80E066E041E00E9453
:10376000100B80E090E0A0E0B0E48B879C87AD87F1
:10377000BE876B857C858D859E8520E030E04AEF95
:1037800054E40E941F02DC01CB018F839887A98734
:10379000BA876F81788589859A8520E030E040E896
:1037A0005FE30E94790388232CF481E090E09E83FC
:1037B0008D833FC06F81788589859A8520E03FEFB2
:1037C0004FE757E40E94190318164CF56B857C856A
:1037D0008D859E8520E030E040E251E40E941F028A
:1037E000DC01CB01BC01CD010E944900DC01CB0111
:1037F0009E838D830FC088EC90E09C838B838B81AC
:103800009C810197F1F79C838B838D819E81019729
:103810009E838D838D819E81009769F714C06F818F
:10382000788589859A850E944900DC01CB019E83B9
:103830008D838D819E819A83898389819A81019765
:10384000F1F79A83898380E066E040E00E94100BE4
:103850002F960FB6F894DEBF0FBECDBFCF91DF918C
:103860000895DF93CF93CDB7DEB72F970FB6F894B7
:10387000DEBF0FBECDBF8F8780E064E041E00E94D5
:10388000100B80E065E040E00E94100B81E06F8546
:103890000E94A90D80E066E041E00E94100B80E0EC
:1038A00090E0A0E0B0E48B879C87AD87BE876B85F6
:1038B0007C858D859E8520E030E04AEF54E40E94AF
:1038C0001F02DC01CB018F839887A987BA876F819C
:1038D000788589859A8520E030E040E85FE30E94A2
:1038E000790388232CF481E090E09E838D833FC090
:1038F0006F81788589859A8520E03FEF4FE757E40F
:103900000E94190318164CF56B857C858D859E8564
:1039100020E030E040E251E40E941F02DC01CB01D4
:10392000BC01CD010E944900DC01CB019E838D8347
:103930000FC088EC90E09C838B838B819C810197E6
:10394000F1F79C838B838D819E8101979E838D836C
:103950008D819E81009769F714C06F817885898574
:103960009A850E944900DC01CB019E838D838D8165
:103970009E819A83898389819A810197F1F79A833D
:10398000898380E066E040E00E94100B2F960FB61E
:10399000F894DEBF0FBECDBFCF91DF910895DF93C6
:1039A000CF9300D00F92CDB7DEB79B838A83198265
:1039B0000EC08981282F30E08A819B81FC01E20FB3
:1039C000F31F80810E94311C89818F5F89838981E7
:1039D000282F30E08A819B81FC01E20FF31F808158
:1039E000882339F70F900F900F90CF91DF910895B2
:1039F000EF92FF920F931F93DF93CF93CDB7DEB774
:103A000028970FB6F894DEBF0FBECDBF6D837E83BF
:103A10008F83988781E090E0A0E0B0E089839A836B
:103A2000AB83BC838D819E81AF81B8850097A10552
:103A3000B105D1F580E30E94311C6BC089819A8168
:103A4000AB81BC812AE030E040E050E0BC01CD0118
:103A50000E94842B7B018C018D819E81AF81B88572
:103A60002AE030E040E050E0BC01CD010E94B72BDD
:103A7000DC01CB018E0D9F1DA01FB11F89839A838E
:103A8000AB83BC838D819E81AF81B8852AE030E015
:103A900040E050E0BC01CD010E94B72BDA01C90122
:103AA0008D839E83AF83B8878D819E81AF81B885DA
:103AB0000097A105B10511F623C089819A81AB81D8
:103AC000BC812AE030E040E050E0BC01CD010E9422
:103AD000B72BDC01CB01805D0E94311C89819A816A
:103AE000AB81BC812AE030E040E050E0BC01CD0178
:103AF0000E94B72BDA01C90189839A83AB83BC8307
:103B000089819A81AB81BC8181309105A105B10584
:103B1000A1F628960FB6F894DEBF0FBECDBFCF91A9
:103B2000DF911F910F91FF90EF900895DF93CF9356
:103B300000D000D0CDB7DEB789836A838981282F72
:103B400030E03C832B838B819C81009731F02B816B
:103B50003C812130310531F009C08A8180580E94B2
:103B6000931B04C08A8180540E94931B0F900F9076
:103B70000F900F90CF91DF910895DF93CF93CDB742
:103B8000DEB781E00E94931BCF91DF910895DF9310
:103B9000CF93CDB7DEB727970FB6F894DEBF0FBE31
:103BA000CDBF9C838B836D834E832F831A828D813F
:103BB000882F90E0880F991F880F991F880F991FF1
:103BC0008A838A81805C0E94931B19820EC089813E
:103BD000282F30E08B819C81FC01E20FF31F808154
:103BE0000E94311C89818F5F89838981883078F3B5
:103BF0008E816F810E94961D8D810E94311C2796B7
:103C00000FB6F894DEBF0FBECDBFCF91DF91089500
:103C1000DF93CF93CDB7DEB782E060E040E00E9453
:103C2000200C82E061E040E00E94200C82E062E033
:103C300040E00E94200C82E063E040E00E94200C03
:103C400082E064E041E00E94200C82E065E041E017
:103C50000E94200C82E066E041E00E94200C82E09D
:103C600067E041E00E94200C82E06FEF0E94A90D06
:103C7000CF91DF910895DF93CF93CDB7DEB76B97E8
:103C80000FB6F894DEBF0FBECDBF84E08C8B85E00D
:103C90008D8B86E08E8B87E08F8B188E81E0898FED
:103CA00082E08A8F83E08B8F8FEF888B1F861B8A41
:103CB000E3C08B89282F30E0CE014496FC01E20F4F
:103CC000F31F908182E0692F40E00E94100B1A8A56
:103CD000BBC080E090E0A0EAB0E48B879C87AD8712
:103CE000BE876B857C858D859E8520E030E04AEF20
:103CF00054E40E941F02DC01CB018F839887A987BF
:103D0000BA876F81788589859A8520E030E040E820
:103D10005FE30E94790388232CF481E090E09E8386
:103D20008D833FC06F81788589859A8520E03FEF3C
:103D30004FE757E40E94190318164CF56B857C85F4
:103D40008D859E8520E030E040E251E40E941F0214
:103D5000DC01CB01BC01CD010E944900DC01CB019B
:103D60009E838D830FC088EC90E09C838B838B8136
:103D70009C810197F1F79C838B838D819E810197B4
:103D80009E838D838D819E81009769F714C06F811A
:103D9000788589859A850E944900DC01CB019E8344
:103DA0008D838D819E819A83898389819A810197F0
:103DB000F1F79A8389838A89282F30E0CE014896CB
:103DC000FC01E20FF31F908182E0692F0E94300D09
:103DD000898B89898823A9F58A89282F30E0CE012B
:103DE0004896FC01E20FF31F908182E0692F0E9448
:103DF000300D898B0EC08A89282F30E0CE0148967D
:103E0000FC01E20FF31F908182E0692F0E94300DC8
:103E1000898B8989882379F38A89482F50E08B8997
:103E2000282F30E0CA01880F991F880F991F820F31
:103E3000931FFC01E550FF4F8081888B81E08F87C5
:103E400007C08A898F5F8A8B8A89843008F441CFC2
:103E50008B89282F30E0CE014496FC01E20FF31F3E
:103E6000908182E0692F41E00E94100B8F858130A4
:103E700039F08B898F5F8B8B8B89843008F419CF55
:103E800088896B960FB6F894DEBF0FBECDBFCF9179
:103E9000DF910895DF93CF93CDB7DEB782E060E086
:103EA00041E00E94200C82E061E041E00E94200C91
:103EB000CF91DF910895DF93CF9300D00F92CDB7CC
:103EC000DEB789838981282F30E03B832A838A816A
:103ED0009B81009781F02A813B8121303105A9F433
:103EE00082E060E041E00E94100B82E061E040E08F
:103EF0000E94100B0AC082E061E041E00E94100BBA
:103F000082E060E040E00E94100B0F900F900F9055
:103F1000CF91DF910895DF93CF93CDB7DEB782E0E5
:103F200060E040E00E94100B82E061E040E00E940F
:103F3000100BCF91DF9108950F931F93DF93CF93D1
:103F4000CDB7DEB7C95ED0400FB6F894DEBF0FBE66
:103F5000CDBFFE01ED51FF4F82ED94E09183808350
:103F6000FE01E152FF4F118210820E94F90F0E9460
:103F7000081E0E940E1983E063E041E00E94200CBD
:103F800083E063E040E00E94100B83E060E040E0EB
:103F90000E94200C83E061E041E00E94200C0E941E
:103FA000D8050E94720E80E060E00E94B41880E0A4
:103FB00067E041E00E94200C83E062E040E00E9464
:103FC000200C83E062E041E00E94100B0E94B408E4
:103FD00080E060E00E94F6088AEF9AE20E94410ABF
:103FE000DE01A152BF4FFE01E152FF4F808191815E
:103FF000019611969C938E93FE01E152FF4F8081B2
:104000009181009719F481E60E943306FE01E15286
:10401000FF4F808191818130910519F482E60E94E1
:104020003306FE01E152FF4F80819181823091057C
:1040300019F483E60E9433060E94BD1D80E690E0DD
:104040000E94CF1CFE01E153FF4F80E090E0AAE701
:10405000B4E480839183A283B3838E0105531F4F01
:10406000FE01E153FF4F608171818281938120E0E5
:1040700030E04AEF54E40E941F02DC01CB01F8015A
:1040800080839183A283B383FE01E553FF4F608158
:1040900071818281938120E030E040E85FE30E94FB
:1040A0007903882344F4FE01E753FF4F81E090E059
:1040B0009183808364C0FE01E553FF4F608171816D
:1040C0008281938120E03FEF4FE757E40E9419037C
:1040D00018160CF043C0FE01E153FF4F608171815F
:1040E0008281938120E030E040E251E40E941F028F
:1040F000DC01CB018E0107531F4FBC01CD010E9493
:104100004900DC01CB01F801918380831FC0FE01CF
:10411000E953FF4F88EC90E091838083FE01E953DF
:10412000FF4F808191810197F1F7FE01E953FF4F25
:1041300091838083DE01A753BF4FFE01E753FF4FFA
:1041400080819181019711969C938E93FE01E75394
:10415000FF4F808191810097D1F627C08E010753D0
:104160001F4FFE01E553FF4F608171818281938172
:104170000E944900DC01CB01F80191838083DE01BC
:10418000AB53BF4FFE01E753FF4F808191818D9369
:104190009C93FE01EB53FF4F808191810197F1F7D2
:1041A000FE01EB53FF4F918380830E94BD1D88E683
:1041B00090E00E94CF1CFE01EF53FF4F80E090E0A3
:1041C000AAE7B4E480839183A283B3838E0103546E
:1041D0001F4FFE01EF53FF4F6081718182819381F8
:1041E00020E030E04AEF54E40E941F02DC01CB01E2
:1041F000F80180839183A283B383FE01E354FF4FD0
:10420000608171818281938120E030E040E85FE34A
:104210000E947903882344F4FE01E554FF4F81E0B6
:1042200090E09183808364C0FE01E354FF4F60817E
:1042300071818281938120E03FEF4FE757E40E9434
:10424000190318160CF043C0FE01EF53FF4F6081B5
:1042500071818281938120E030E040E251E40E944C
:104260001F02DC01CB018E0105541F4FBC01CD01A3
:104270000E944900DC01CB01F801918380831FC0BB
:10428000FE01E754FF4F88EC90E091838083FE01AC
:10429000E754FF4F808191810197F1F7FE01E754C8
:1042A000FF4F91838083DE01A554BF4FFE01E5548B
:1042B000FF4F80819181019711969C938E93FE010F
:1042C000E554FF4F808191810097D1F627C08E0180
:1042D00005541F4FFE01E354FF4F608171818281BD
:1042E00093810E944900DC01CB01F8019183808316
:1042F000DE01A954BF4FFE01E554FF4F808191813B
:104300008D939C93FE01E954FF4F80819181019729
:10431000F1F7FE01E954FF4F9183808381E060E073
:104320000E94961D0E943B1EFE01E252FF4F8083B9
:10433000FE01E252FF4F80818F3FA1F38AE20E948B
:10434000311C0E943B1EFE01E352FF4F8083FE01A1
:10435000E352FF4F80818F3FA1F38AE20E94311C1C
:104360000E943B1EFE01E452FF4F8083FE01E45297
:10437000FF4F80818F3FA1F38AE20E94311C0E948F
:104380003B1EFE01E552FF4F8083FE01E552FF4FC9
:1043900080818F3FA1F38AE20E94311CFE01E2522C
:1043A000FF4F8081282F30E088EE93E0289FA00106
:1043B000299F500D389F500D1124FE01E352FF4FED
:1043C0008081282F30E084E690E0BC01269FC00168
:1043D000279F900D369F900D1124480F591FFE0105
:1043E000E452FF4F8081882F90E09C01220F331F01
:1043F000C901880F991F880F991F820F931F9A0177
:10440000280F391FFE01E552FF4F8081882F90E071
:10441000820F931FFE01EF51FF4F91838083FE01B6
:10442000EF51FF4FDE01AD51BF4F208131818D91A2
:104430009C9111972817390709F47DC1FE01E152BB
:10444000FF4F808191818330910508F074C10E94F3
:10445000BD1D87E790E00E94CF1CFE01ED54FF4F89
:1044600080E090E0AAE7B4E480839183A283B383E1
:104470008E0101551F4FFE01ED54FF4F6081718188
:104480008281938120E030E04AEF54E40E941F02D1
:10449000DC01CB01F80180839183A283B383FE0109
:1044A000E155FF4F608171818281938120E030E08E
:1044B00040E85FE30E947903882344F4FE01E3555A
:1044C000FF4F81E090E09183808364C0FE01E1555D
:1044D000FF4F608171818281938120E03FEF4FE740
:1044E00057E40E94190318160CF043C0FE01ED5466
:1044F000FF4F608171818281938120E030E040E252
:1045000051E40E941F02DC01CB018E0103551F4FB5
:10451000BC01CD010E944900DC01CB01F80191836F
:1045200080831FC0FE01E555FF4F88EC90E091832A
:104530008083FE01E555FF4F808191810197F1F75E
:10454000FE01E555FF4F91838083DE01A355BF4FE8
:10455000FE01E355FF4F80819181019711969C9355
:104560008E93FE01E355FF4F808191810097D1F634
:1045700027C08E0103551F4FFE01E155FF4F60819B
:104580007181828193810E944900DC01CB01F80195
:1045900091838083DE01A755BF4FFE01E355FF4F96
:1045A000808191818D939C93FE01E755FF4F80811F
:1045B00091810197F1F7FE01E755FF4F91838083C9
:1045C0000E94BD1D86E890E00E94CF1CFE01EB55C5
:1045D000FF4F80E090E0AAE7B4E480839183A28358
:1045E000B3838E010F551F4FFE01EB55FF4F6081C6
:1045F00071818281938120E030E04AEF54E40E948F
:104600001F02DC01CB01F80180839183A283B38375
:10461000FE01EF55FF4F608171818281938120E01F
:1046200030E040E85FE30E947903882344F4FE0110
:10463000E156FF4F81E090E09183808364C0FE01EA
:10464000EF55FF4F608171818281938120E03FEFC0
:104650004FE757E40E94190318160CF043C0FE01FF
:10466000EB55FF4F608171818281938120E030E0C2
:1046700040E251E40E941F02DC01CB018E01015691
:104680001F4FBC01CD010E944900DC01CB01F801A4
:10469000918380831FC0FE01E356FF4F88EC90E0BA
:1046A00091838083FE01E356FF4F808191810197C2
:1046B000F1F7FE01E356FF4F91838083DE01A1569F
:1046C000BF4FFE01E156FF4F808191810197119606
:1046D0009C938E93FE01E156FF4F8081918100975C
:1046E000D1F67ECC8E0101561F4FFE01EF55FF4FD4
:1046F00060817181828193810E944900DC01CB013C
:10470000F80191838083DE01A556BF4FFE01E1567B
:10471000FF4F8081918111969C938E93FE01E55607
:10472000FF4F808191810197F1F7FE01E556FF4F20
:104730009183808355CCFE01EF51FF4FDE01AD51D7
:10474000BF4F208131818D919C9111972817390796
:1047500009F490C1FE01E152FF4F83E090E09183A4
:10476000808384E60E9433060E94BD1D80E990E0AC
:104770000E94CF1CFE01E956FF4F80E090E0AAE7BF
:10478000B4E480839183A283B3838E010D561F4FBF
:10479000FE01E956FF4F608171818281938120E0A3
:1047A00030E04AEF54E40E941F02DC01CB01F80123
:1047B00080839183A283B383FE01ED56FF4F608116
:1047C00071818281938120E030E040E85FE30E94C4
:1047D0007903882344F4FE01EF56FF4F81E090E017
:1047E0009183808364C0FE01ED56FF4F608171812B
:1047F0008281938120E03FEF4FE757E40E94190345
:1048000018160CF043C0FE01E956FF4F608171811C
:104810008281938120E030E040E251E40E941F0257
:10482000DC01CB018E010F561F4FBC01CD010E9450
:104830004900DC01CB01F801918380831FC0FE0198
:10484000E157FF4F88EC90E091838083FE01E157B0
:10485000FF4F808191810197F1F7FE01E157FF4FF2
:1048600091838083DE01AF56BF4FFE01EF56FF4FAD
:1048700080819181019711969C938E93FE01EF5652
:10488000FF4F808191810097D1F627C08E010F568E
:104890001F4FFE01ED56FF4F608171818281938130
:1048A0000E944900DC01CB01F80191838083DE0185
:1048B000A357BF4FFE01EF56FF4F808191818D932B
:1048C0009C93FE01E357FF4F808191810197F1F79F
:1048D000FE01E357FF4F918380830E94BD1D8CE949
:1048E00090E00E94CF1C83E063E041E00E94100B47
:1048F000FE01E757FF4F80E090E4ACE1B6E480832F
:104900009183A283B3838E010B571F4FFE01E7579C
:10491000FF4F608171818281938120E030E04AEF16
:1049200054E40E941F02DC01CB01F80180839183D3
:10493000A283B383FE01EB57FF4F608171818281B7
:10494000938120E030E040E85FE30E947903882310
:1049500044F4FE01ED57FF4F81E090E091838083A6
:1049600064C0FE01EB57FF4F6081718182819381AA
:1049700020E03FEF4FE757E40E94190318160CF0B0
:1049800043C0FE01E757FF4F6081718182819381AF
:1049900020E030E040E251E40E941F02DC01CB0144
:1049A0008E010D571F4FBC01CD010E944900DC0153
:1049B000CB01F801918380831FC0FE01EF57FF4FA9
:1049C00088EC90E091838083FE01EF57FF4F808158
:1049D00091810197F1F7FE01EF57FF4F918380839B
:1049E000DE01AD57BF4FFE01ED57FF4F8081918132
:1049F000019711969C938E93FE01ED57FF4F808196
:104A000091810097D1F628C08E010D571F4FFE01EE
:104A1000EB57FF4F60817181828193810E94490031
:104A2000DC01CB01F80191838083DE01A158BF4FE7
:104A3000FE01ED57FF4F8081918111969C938E93DB
:104A4000FE01E158FF4F808191810197F1F7FE014E
:104A5000E158FF4F9183808380E090E0C751DF4FA2
:104A60000FB6F894DEBF0FBECDBFCF91DF911F917F
:104A70000F910895FE01EF51FF4FDE01AD51BF4F81
:104A8000208131818D919C9111972817390709F068
:104A9000D3CA0E94BD1D86EA90E00E94CF1CFE0191
:104AA000E558FF4F80E090E8ABE3B5E48083918365
:104AB000A283B3838E0109581F4FFE01E558FF4FB3
:104AC000608171818281938120E030E04AEF54E47B
:104AD0000E941F02DC01CB01F80180839183A28335
:104AE000B383FE01E958FF4F608171818281938118
:104AF00020E030E040E85FE30E947903882344F43B
:104B0000FE01EB58FF4F81E090E09183808364C009
:104B1000FE01E958FF4F608171818281938120E01D
:104B20003FEF4FE757E40E94190318160CF043C0FB
:104B3000FE01E558FF4F608171818281938120E001
:104B400030E040E251E40E941F02DC01CB018E0103
:104B50000B581F4FBC01CD010E944900DC01CB0165
:104B6000F801918380831FC0FE01ED58FF4F88EC50
:104B700090E091838083FE01ED58FF4F8081918109
:104B80000197F1F7FE01ED58FF4F91838083DE011D
:104B9000AB58BF4FFE01EB58FF4F808191810197C9
:104BA00011969C938E93FE01EB58FF4F808191816B
:104BB0000097D1F627C08E010B581F4FFE01E95810
:104BC000FF4F60817181828193810E944900DC01E5
:104BD000CB01F80191838083DE01AF58BF4FFE0106
:104BE000EB58FF4F808191818D939C93FE01EF588C
:104BF000FF4F808191810197F1F7FE01EF58FF4F40
:104C0000918380830E94BD1D83E70E94330681EB60
:104C100090E00E94CF1CFE01E359FF4F80E090E836
:104C2000ABE3B5E480839183A283B3838E010759FC
:104C30001F4FFE01E359FF4F608171818281938193
:104C400020E030E04AEF54E40E941F02DC01CB0177
:104C5000F80180839183A283B383FE01E759FF4F5C
:104C6000608171818281938120E030E040E85FE3E0
:104C70000E947903882344F4FE01E959FF4F81E043
:104C800090E09183808364C0FE01E759FF4F60810B
:104C900071818281938120E03FEF4FE757E40E94CA
:104CA000190318160CF043C0FE01E359FF4F608151
:104CB00071818281938120E030E040E251E40E94E2
:104CC0001F02DC01CB018E0109591F4FBC01CD0130
:104CD0000E944900DC01CB01F801918380831FC051
:104CE000FE01EB59FF4F88EC90E091838083FE0139
:104CF000EB59FF4F808191810197F1F7FE01EB594C
:104D0000FF4F91838083DE01A959BF4FFE01E9590E
:104D1000FF4F80819181019711969C938E93FE01A4
:104D2000E959FF4F808191810097D1F627C08E010C
:104D300009591F4FFE01E759FF4F60817181828140
:104D400093810E944900DC01CB01F80191838083AB
:104D5000DE01AD59BF4FFE01E959FF4F80819181BE
:104D60008D939C93FE01ED59FF4F808191810197B6
:104D7000F1F7FE01ED59FF4F918380830E94BD1D25
:104D800080EC90E00E94CF1CFE01E15AFF4F80E0D2
:104D900090E8ABE3B5E480839183A283B3838E0173
:104DA000055A1F4FFE01E15AFF4F608171818281D8
:104DB000938120E030E04AEF54E40E941F02DC01BE
:104DC000CB01F80180839183A283B383FE01E55A6E
:104DD000FF4F608171818281938120E030E040E863
:104DE0005FE30E947903882344F4FE01E75AFF4FF2
:104DF00081E090E09183808364C0FE01E55AFF4F1B
:104E0000608171818281938120E03FEF4FE757E419
:104E10000E94190318160CF043C0FE01E15AFF4F1F
:104E2000608171818281938120E030E040E251E431
:104E30000E941F02DC01CB018E01075A1F4FBC01EB
:104E4000CD010E944900DC01CB01F80191838083F0
:104E50001FC0FE01E95AFF4F88EC90E091838083E8
:104E6000FE01E95AFF4F808191810197F1F7FE0120
:104E7000E95AFF4F91838083DE01A75ABF4FFE019D
:104E8000E75AFF4F80819181019711969C938E93F1
:104E9000FE01E75AFF4F808191810097D1F627C02C
:104EA0008E01075A1F4FFE01E55AFF4F6081718145
:104EB000828193810E944900DC01CB01F80191833A
:104EC0008083DE01AB5ABF4FFE01E75AFF4F80815E
:104ED00091818D939C93FE01EB5AFF4F80819181CC
:104EE0000197F1F7FE01EB5AFF4F918380830E94F7
:104EF000BD1D8DEC90E00E94CF1CFE01EF5AFF4FCC
:104F000080E090E8ABE3B5E480839183A283B38330
:104F10008E01035B1F4FFE01EF5AFF4F60817181CD
:104F20008281938120E030E04AEF54E40E941F0226
:104F3000DC01CB01F80180839183A283B383FE015E
:104F4000E35BFF4F608171818281938120E030E0DB
:104F500040E85FE30E947903882344F4FE01E55BA7
:104F6000FF4F81E090E09183808364C0FE01E35BAA
:104F7000FF4F608171818281938120E03FEF4FE795
:104F800057E40E94190318160CF043C0FE01EF5AB3
:104F9000FF4F608171818281938120E030E040E2A7
:104FA00051E40E941F02DC01CB018E01055B1F4F03
:104FB000BC01CD010E944900DC01CB01F8019183C5
:104FC00080831FC0FE01E75BFF4F88EC90E0918378
:104FD0008083FE01E75BFF4F808191810197F1F7AC
:104FE000FE01E75BFF4F91838083DE01A55BBF4F2E
:104FF000FE01E55BFF4F80819181019711969C93A3
:105000008E93FE01E55BFF4F808191810097D1F681
:1050100027C08E01055B1F4FFE01E35BFF4F6081E0
:105020007181828193810E944900DC01CB01F801EA
:1050300091838083DE01A95BBF4FFE01E55BFF4FDB
:10504000808191818D939C93FE01E95BFF4F80816C
:1050500091810197F1F7FE01E95BFF4F9183808316
:105060000E94BD1D89ED90E00E94CF1CFE01ED5B0A
:10507000FF4F80E090E0AAE7B4E480839183A283AD
:10508000B3838E01015C1F4FFE01ED5BFF4F60811A
:1050900071818281938120E030E04AEF54E40E94E4
:1050A0001F02DC01CB01F80180839183A283B383CB
:1050B000FE01FF96608171818281938120E030E062
:1050C00040E85FE30E94790388232CF481E090E0BC
:1050D0009EAF8DAF46C0FE01FF96608171818281D7
:1050E000938120E03FEF4FE757E40E941903181621
:1050F00064F5FE01ED5BFF4F6081718182819381D8
:1051000020E030E040E251E40E941F02DC01CB01CC
:10511000BC01CD010E944900DC01CB019EAF8DAFE7
:105120000FC088EC90E09CAF8BAF8BAD9CAD01972E
:10513000F1F79CAF8BAF8DAD9EAD01979EAF8DAF5C
:105140008DAD9EAD009769F716C0FE01FF96608198
:105150007181828193810E944900DC01CB019EAF65
:105160008DAF8DAD9EAD9AAF89AF89AD9AAD0197E8
:10517000F1F79AAF89AF83E00E94B80EDC01CB0152
:10518000FE01EB51FF4F80839183A283B383FE0125
:10519000EB51FF4F80819181A281B381813CFAE084
:1051A0009F07F0E0AF07F0E0BF0708F478C080E0A9
:1051B00090E0AAE7B4E48DAB9EABAFABB8AF6DA9FE
:1051C0007EA98FA998AD20E030E04AEF54E40E9418
:1051D0001F02DC01CB0189AB9AABABABBCAB69A9BD
:1051E0007AA98BA99CA920E030E040E85FE30E9407
:1051F000790388232CF481E090E098AB8FA73FC01F
:1052000069A97AA98BA99CA920E03FEF4FE757E451
:105210000E94190318164CF56DA97EA98FA998ADA7
:1052200020E030E040E251E40E941F02DC01CB01AB
:10523000BC01CD010E944900DC01CB0198AB8FA7D6
:105240000FC088EC90E09EA78DA78DA59EA5019725
:10525000F1F79EA78DA78FA598A9019798AB8FA767
:105260008FA598A9009769F714C069A97AA98BA995
:105270009CA90E944900DC01CB0198AB8FA78FA5A8
:1052800098A99CA78BA78BA59CA50197F1F79CA734
:105290008BA780E060E041E00E94D3187CC080E0F2
:1052A00090E0AAE7B4E48FA398A7A9A7BAA76FA133
:1052B00078A589A59AA520E030E04AEF54E40E9441
:1052C0001F02DC01CB018BA39CA3ADA3BEA36BA1EA
:1052D0007CA18DA19EA120E030E040E85FE30E9428
:1052E000790388232CF481E090E09AA389A33FC03E
:1052F0006BA17CA18DA19EA120E03FEF4FE757E479
:105300000E94190318164CF56FA178A589A59AA5D6
:1053100020E030E040E251E40E941F02DC01CB01BA
:10532000BC01CD010E944900DC01CB019AA389A3F5
:105330000FC088EC90E098A38F8F8F8D98A1019774
:10534000F1F798A38F8F89A19AA101979AA389A3B6
:1053500089A19AA1009769F714C06BA17CA18DA1C6
:105360009EA10E944900DC01CB019AA389A389A1D7
:105370009AA19E8F8D8F8D8D9E8D0197F1F79E8FB7
:105380008D8F80E060E040E00E94D31881E068E704
:1053900070E00E94281082E00E94B80EDC01CB0170
:1053A000FE01E952FF4F80839183A283B3838E0174
:1053B0000D521F4FFE01E952FF4F80819181A28162
:1053C000B3812AE030E040E050E0BC01CD010E9412
:1053D000B72BDA01C901F80180839183A283B383DB
:1053E000FE01ED52FF4F80819181A281B3818E3108
:1053F0009105A105B10508F478C080E090E0AAE726
:10540000B4E4898F9A8FAB8FBC8F698D7A8D8B8D29
:105410009C8D20E030E04AEF54E40E941F02DC0142
:10542000CB018D8B9E8BAF8BB88F6D897E898F89D9
:10543000988D20E030E040E85FE30E947903882304
:105440002CF481E090E09C8B8B8B3FC06D897E8932
:105450008F89988D20E03FEF4FE757E40E941903B2
:1054600018164CF5698D7A8D8B8D9C8D20E030E07F
:1054700040E251E40E941F02DC01CB01BC01CD01DE
:105480000E944900DC01CB019C8B8B8B0FC088EC08
:1054900090E09A8B898B89899A890197F1F79A8B89
:1054A000898B8B899C8901979C8B8B8B8B899C89A1
:1054B000009769F714C06D897E898F89988D0E9445
:1054C0004900DC01CB019C8B8B8B8B899C89988B51
:1054D0008F878F8598890197F1F7988B8F8780E068
:1054E00067E041E00E94100B46CEFE01ED52FF4FF7
:1054F00080819181A281B3818E319105A105B10591
:1055000008F039CE80E090E0AAE7B4E48B879C876E
:10551000AD87BE876B857C858D859E8520E030E0DC
:105520004AEF54E40E941F02DC01CB018F8398876D
:10553000A987BA876F81788589859A8520E030E0D0
:1055400040E85FE30E94790388232CF481E090E037
:105550009E838D833FC06F81788589859A8520E001
:105560003FEF4FE757E40E94190318164CF56B857F
:105570007C858D859E8520E030E040E251E40E94EC
:105580001F02DC01CB01BC01CD010E944900DC01FE
:10559000CB019E838D830FC088EC90E09C838B832E
:1055A0008B819C810197F1F79C838B838D819E81F8
:1055B00001979E838D838D819E81009769F714C02A
:1055C0006F81788589859A850E944900DC01CB012D
:1055D0009E838D838D819E819A83898389819A811F
:1055E0000197F1F79A83898380E067E040E00E94A9
:1055F000100BC1CDDF93CF93CDB7DEB72E970FB68B
:10560000F894DEBF0FBECDBF83E063E041E00E94AF
:10561000100B80E090E4ACE1B6E48B879C87AD870B
:10562000BE876B857C858D859E8520E030E04AEFC6
:1056300054E40E941F02DC01CB018F839887A98765
:10564000BA876F81788589859A8520E030E040E8C7
:105650005FE30E94790388232CF481E090E09E832D
:105660008D833FC06F81788589859A8520E03FEFE3
:105670004FE757E40E94190318164CF56B857C859B
:105680008D859E8520E030E040E251E40E941F02BB
:10569000DC01CB01BC01CD010E944900DC01CB0142
:1056A0009E838D830FC088EC90E09C838B838B81DD
:1056B0009C810197F1F79C838B838D819E8101975B
:1056C0009E838D838D819E81009769F714C06F81C1
:1056D000788589859A850E944900DC01CB019E83EB
:1056E0008D838D819E819A83898389819A81019797
:1056F000F1F79A8389832E960FB6F894DEBF0FBE1A
:10570000CDBFCF91DF910895629FD001739FF001CB
:10571000829FE00DF11D649FE00DF11D929FF00D41
:10572000839FF00D749FF00D659FF00D9927729F78
:10573000B00DE11DF91F639FB00DE11DF91FBD0103
:10574000CF0111240895AA1BBB1B51E107C0AA1F5A
:10575000BB1FA617B70710F0A61BB70B881F991F12
:105760005A95A9F780959095BC01CD010895A1E2C5
:105770001A2EAA1BBB1BFD010DC0AA1FBB1FEE1FCB
:10578000FF1FA217B307E407F50720F0A21BB30B16
:10579000E40BF50B661F771F881F991F1A9469F792
:1057A00060957095809590959B01AC01BD01CF01EE
:1057B00008952F923F924F925F926F927F928F92B5
:1057C0009F92AF92BF92CF92DF92EF92FF920F9390
:1057D0001F93CF93DF93CDB7DEB7CA1BDB0B0FB69A
:1057E000F894DEBF0FBECDBF09942A883988488857
:1057F0005F846E847D848C849B84AA84B984C884ED
:10580000DF80EE80FD800C811B81AA81B981CE0FE3
:10581000D11D0FB6F894DEBF0FBECDBFED010895C8
:04582000F894FFCF2A
:1058240057656C636F6D6500456E746572207061B9
:105834007373776F72640057726F6E672050617371
:1058440073776F72640054727920616761696E00C6
:105854004E6F4D6F7265547269657300416C657269
:105864007473204F6E0048656C6C6F20757365729D
:1058740000446F6F72206973206F70656E656400F9
:105884004C6967687420537973204F4E0054656DDA
:105894007020537973204F4E004861766520612053
:1058A4006E696365206461790000000000000000F7
:1058B400003F065B4F667D077F6F000708092F04D2
:0C58C40005062A0102032D23003D2B00E5
:00000001FF
